:0400000007EF00F016
:0A0008005982D4ED14F044EF18F013
:10100000008445C644F8444627F62B6E45423342D9
:101010004630461E460C46FA45E845D64558456CCE
:10102000397365636F6E64733A006D696E757465CC
:10103000733A006D6F6E74683A00686F7572733A38
:101040000054494D453A00444154453A00796561A0
:10105000723A006461793A0025690000CDEC20F015
:101060003B50D8A436EF08F038EF08F023EF09F032
:10107000500E0001896F000E8A6F010E8B6F5DECC0
:1010800019F096EC1DF020EE41F0050EEBCFDBFFE2
:10109000E806FCE2500E0001976F000E986F010EFB
:1010A000996F010E9A6F410E9B6F100E9C6F24EC8E
:1010B0001AF0470E276E000E286E415062EC0DF0BC
:1010C000500E0101626F000E636F010E646F070E18
:1010D000656F47C066F117EC1FF0500E0001976F67
:1010E000000E986F010E996F090E9A6F3A0E9B6F62
:1010F00095EC1BF0480E276E000E286E425062ECF5
:101100000DF0500E0101626F000E636F010E646FEF
:101110000A0E656F48C066F117EC1FF0500E000113
:10112000976F000E986F010E996F0C0E9A6F3A0E22
:101130009B6F95EC1BF0490E276E000E286E4350F6
:1011400062EC0DF0500E0101626F000E636F010E34
:10115000646F0D0E656F49C066F117EC1FF0500EFD
:101160000001976F000E986F020E996F010E9A6F33
:10117000470E9B6F100E9C6F24EC1AF0580E276ED2
:10118000000E286E465062EC0DF0500E0101626FA9
:10119000000E636F020E646F070E656F58C066F134
:1011A00017EC1FF0500E0001976F000E986F020EA3
:1011B000996F090E9A6F2F0E9B6F95EC1BF0570ECF
:1011C000276E000E286E455062EC0DF0500E0101A6
:1011D000626F000E636F020E646F0A0E656F45C08A
:1011E00066F117EC1FF0500E0001976F000E986F1C
:1011F000020E996F0C0E9A6F2F0E9B6F95EC1BF0E1
:10120000560E276E000E286E445062EC0DF0500E04
:101210000101626F000E636F020E646F0D0E656F49
:1012200056C066F117EC1FF0060E01016A6F130E2F
:10123000696FAD0EE82EFED7692FFCD76A2FFAD75B
:1012400000D030EF08F03B04D8A429EF09F02BEFD1
:1012500009F052EF09F0500E0001896F000E8A6FFD
:10126000010E8B6F5DEC19F0500E0001976F000EB0
:10127000986F010E996F010E9A6F210E9B6F100EE1
:101280009C6F24EC1AF0500E0101626F000E636F28
:10129000010E646F0A0E656F49C066F117EC1FF00E
:1012A00014EF09F0020E3B18D8A459EF09F05BEFD8
:1012B00009F082EF09F0500E0001896F000E8A6F6D
:1012C000010E8B6F5DEC19F0500E0001976F000E50
:1012D000986F010E996F010E9A6F2A0E9B6F100E78
:1012E0009C6F24EC1AF0500E0101626F000E636FC8
:1012F000010E646F0A0E656F48C066F117EC1FF0AF
:1013000014EF09F0030E3B18D8A489EF09F08BEF16
:1013100009F0B2EF09F0500E0001896F000E8A6FDC
:10132000010E8B6F5DEC19F0500E0001976F000EEF
:10133000986F010E996F010E9A6F3A0E9B6F100E07
:101340009C6F24EC1AF0500E0101626F000E636F67
:10135000010E646F080E656F47C066F117EC1FF051
:1013600014EF09F0040E3B18D8A4B9EF09F0BBEF55
:1013700009F0E2EF09F0500E0001896F000E8A6F4C
:10138000010E8B6F5DEC19F0500E0001976F000E8F
:10139000986F010E996F010E9A6F530E9B6F100E8E
:1013A0009C6F24EC1AF0500E0101626F000E636F07
:1013B000010E646F060E656F58C066F117EC1FF0E2
:1013C00014EF09F0050E3B18D8A4E9EF09F0EBEF94
:1013D00009F012EF0AF0500E0001896F000E8A6FBB
:1013E000010E8B6F5DEC19F0500E0001976F000E2F
:1013F000986F010E996F010E9A6F330E9B6F100E4E
:101400009C6F24EC1AF0500E0101626F000E636FA6
:10141000010E646F080E656F57C066F117EC1FF080
:1014200014EF09F0060E3B18D8A419EF0AF01BEFD1
:101430000AF042EF0AF0500E0001896F000E8A6F29
:10144000010E8B6F5DEC19F0500E0001976F000ECE
:10145000986F010E996F010E9A6F4D0E9B6F100ED3
:101460009C6F24EC1AF0500E0101626F000E636F46
:10147000010E646F070E656F56C066F117EC1FF022
:1014800014EF09F030EF08F007EF00F093C0ABF075
:1014900094C0ACF095C0ADF096C0AEF097C0AFF080
:1014A00098C0B0F099C0B1F09AC0B2F00001B2BFDC
:1014B0005CEF0AF05FEF0AF0010E60EF0AF0000E39
:1014C000A96FAA6BA951AA11D8B469EF0AF06BEF02
:1014D0000AF07BEF0AF0B21FB11FB01FAF1FAE1FA3
:1014E000AD1FAC1FAB6D000EAC23AD23AE23AF23FD
:1014F000B023B123B22332BE80EF0AF082EF0AF0AC
:1015000083EF0AF0339232BE90EF0AF0325006E1D8
:101510003104D8B08EEF0AF090EF0AF096EF0AF09F
:10152000000EA66F010EA56F9AEF0AF031C0A5F06C
:1015300032C0A6F0F7C0A7F0F8C0A8F0A951AA11D0
:10154000D8A4A5EF0AF0A7EF0AF0AEEF0AF033A493
:10155000ACEF0AF0AEEF0AF0B1EF0AF0A707D8A09F
:10156000A807000EB46F1F0EB36F000E0101256FA8
:1015700037EF0BF0B307D8A0B407060EB325D96E2A
:10158000010EB421DA6EABC080F0ACC081F0ADC00A
:1015900082F0AEC083F0AFC084F0B0C085F0B1C0BF
:1015A00086F0B2C087F00A0E886F000E896F000EB9
:1015B0008A6F000E8B6F000E8C6F000E8D6F000E09
:1015C0008E6F000E8F6FACEC0FF080C09BF081C06F
:1015D0009CF082C09DF083C09EF084C09FF085C0C7
:1015E000A0F086C0A1F087C0A2F09BC029F09DC0EA
:1015F0002AF0CEEC1FF02950300FDF6E0001A50756
:10160000D8A0A607A707D8A0A807ABC080F0ACC099
:1016100081F0ADC082F0AEC083F0AFC084F0B0C046
:1016200085F0B1C086F0B2C087F00A0E886F000E58
:10163000896F000E8A6F000E8B6F000E8C6F000E8C
:101640008D6F000E8E6F000E8F6F2BEC0EF080C032
:10165000ABF081C0ACF082C0ADF083C0AEF084C00E
:10166000AFF085C0B0F086C0B1F087C0B2F0000125
:10167000B4BF43EF0BF0B45108E1B305D8A043EF7A
:101680000BF045EF0BF075EF0BF0AB51AC11AD115A
:10169000AE11AF11B011B111B211D8A452EF0BF0CD
:1016A00054EF0BF0BAEF0AF0A6BF61EF0BF0A651B2
:1016B00006E1A505D8B05FEF0BF061EF0BF0BAEFD4
:1016C0000AF0A8BF6CEF0BF0A85108E1A705D8A05D
:1016D0006CEF0BF06EEF0BF075EF0BF033B273EFB6
:1016E0000BF075EF0BF0BAEF0AF0A951AA11D8A4CC
:1016F0007CEF0BF07EEF0BF085EF0BF033A483EF64
:101700000BF085EF0BF0A3EF0BF0B307D8A0B407F5
:10171000A951AA11D8A48FEF0BF091EF0BF097EF1E
:101720000BF0000EA46F2B0EA36F9BEF0BF0000EBF
:10173000A46F2D0EA36F060EB325D96E010EB42132
:10174000DA6EA3C0DFFF91C087F092C088F0060E6A
:10175000B325896F010EB4218A6FA7C08BF0A8C092
:101760008CF070EC14F087C091F088C092F01200F9
:10177000B7C0D9FFB8C0DAFFDECFF6FFDDCFF7FF85
:10178000F86A0800F550250AD8A4C9EF0BF0CBEF92
:101790000BF07BEF0CF0B7C0D9FFB8C0DAFFDE2A40
:1017A000000EDD22000E0001F86F000EF76FF7C08B
:1017B00033F0F8C034F031683268B7C0D9FFB8C030
:1017C000DAFFDECFF6FFDDCFF7FFF86A0800F5504D
:1017D000640AD8B4EEEF0BF0F0EF0BF003EF0CF06F
:1017E000B7C0D9FFB8C0DAFFDECFF6FFDDCFF7FF15
:1017F000F86A0800F550690AD8A401EF0CF003EF6D
:101800000CF043EF0CF0B7C0D9FFB8C0DAFFDE2A06
:10181000000EDD22B9C0D9FFBAC0DAFFDFCFBBF0BE
:10182000020EDE26DFCFBCF0000EDD22BBC0D9FFEA
:10183000BCC0DAFFDECFBDF0DDCFBEF0000EBEBF14
:10184000FF0EBF6FC06FC16FC26FC36FC46FB5C0F3
:1018500091F0B6C092F0BDC093F0BEC094F0BFC08E
:1018600095F0C0C096F0C1C097F0C2C098F0C3C058
:1018700099F0C4C09AF046EC0AF091C0B5F092C05D
:10188000B6F097EF0CF0B7C0D9FFB8C0DAFFDECFE3
:10189000F6FFDDCFF7FFF86A0800F550250AD8A457
:1018A00054EF0CF056EF0CF06EEF0CF0B7C0D9FF10
:1018B000B8C0DAFFDE2A000EDD22000E286E250EEB
:1018C000276EB5C029F0B6C02AF00BEC14F0000E5C
:1018D0000001B66F010EB56F97EF0CF0B7C0D9FFDE
:1018E000B8C0DAFFDE2A000EDD22000EB66F000E51
:1018F000B56F97EF0CF0B7C0D9FFB8C0DAFFDECFF5
:10190000F6FFDDCFF7FFF86A0800F550276E286A6A
:10191000B5C029F0B6C02AF00BEC14F0B7C0D9FF5F
:10192000B8C0DAFFDE2A000EDD2267EF0CF01200ED
:101930000B6EBFEF0CF0000E0C6E1EEF0DF0010EE3
:101940000C6E1EEF0DF0020E0C6E1EEF0DF0030E6E
:101950000C6E1EEF0DF0040E0C6E1EEF0DF0050E5A
:101960000C6E1EEF0DF0060E0C6E1EEF0DF0070E46
:101970000C6E1EEF0DF0080E0C6E1EEF0DF00BC07E
:1019800001F0026A000E046E0A0E036E54EC16F0AB
:101990000250000AD8B4CFEF0CF01EEF0DF001504A
:1019A000000AD8B49BEF0CF0010AD8B49FEF0CF0FA
:1019B000030AD8B4A3EF0CF0010AD8B4A7EF0CF0D7
:1019C000070AD8B4ABEF0CF0010AD8B4AFEF0CF0B3
:1019D000030AD8B4B3EF0CF0010AD8B4B7EF0CF097
:1019E0000F0AD8B4BBEF0CF0010AD8B4BBEF0CF06F
:1019F0001EEF0DF0000E0D6E59EF0DF0010E0D6E85
:101A000059EF0DF0020E0D6E59EF0DF0030E0D6E35
:101A100059EF0DF0040E0D6E59EF0DF0050E0D6E21
:101A200059EF0DF0060E0D6E59EF0DF0070E0D6E0D
:101A300059EF0DF0080E0D6E59EF0DF00BC001F0CF
:101A4000026A000E046E0A0E036E37EC15F00250A7
:101A5000000AD8B42EEF0DF059EF0DF00150000A36
:101A6000D8B4FAEF0CF0010AD8B4FEEF0CF0030A78
:101A7000D8B402EF0DF0010AD8B406EF0DF0070A52
:101A8000D8B40AEF0DF0010AD8B40EEF0DF0030A36
:101A9000D8B412EF0DF0010AD8B416EF0DF00F0A0A
:101AA000D8B41AEF0DF0010AD8B41AEF0DF059EFBF
:101AB0000DF00D38F00B0C1009C0D9FF0AC0DAFF89
:101AC000DF6E12002B6E8DEF0DF0000E2D6EEBEF22
:101AD0000DF0010E2D6EEBEF0DF0020E2D6EEBEF03
:101AE0000DF0030E2D6EEBEF0DF0040E2D6EEBEFEF
:101AF0000DF0050E2D6EEBEF0DF0060E2D6EEBEFDB
:101B00000DF0070E2D6EEBEF0DF0080E2D6EEBEFC6
:101B10000DF0090E2D6EEBEF0DF02B500F0B296E13
:101B20002A6A2A50000AD8B498EF0DF0EBEF0DF0B6
:101B30002950000AD8B465EF0DF0010AD8B469EF56
:101B40000DF0030AD8B46DEF0DF0010AD8B471EFAF
:101B50000DF0070AD8B475EF0DF0010AD8B479EF8B
:101B60000DF0030AD8B47DEF0DF0010AD8B481EF6F
:101B70000DF00F0AD8B485EF0DF0010AD8B489EF43
:101B80000DF0EBEF0DF0000E2C6E21EF0EF0010EBC
:101B90002C6E21EF0EF0020E2C6E21EF0EF0030ED4
:101BA0002C6E21EF0EF0040E2C6E21EF0EF0050EC0
:101BB0002C6E21EF0EF0060E2C6E21EF0EF0070EAC
:101BC0002C6E21EF0EF0080E2C6E21EF0EF0090E98
:101BD0002C6E21EF0EF02B380F0B296E2A6A2A503B
:101BE000000AD8B4F6EF0DF021EF0EF02950000AEC
:101BF000D8B4C3EF0DF0010AD8B4C7EF0DF0030A53
:101C0000D8B4CBEF0DF0010AD8B4CFEF0DF0070A2E
:101C1000D8B4D3EF0DF0010AD8B4D7EF0DF0030A12
:101C2000D8B4DBEF0DF0010AD8B4DFEF0DF00F0AE6
:101C3000D8B4E3EF0DF0010AD8B4E7EF0DF021EFCF
:101C40000EF02C500A0DF3502D2427C0D9FF28C0C8
:101C5000DAFFDF6E1200000E286E00018FBF35EF35
:101C60000EF033EF0EF047EF0EF08F1F8E1F8D1F1B
:101C70008C1F8B1F8A1F891F886D000E89238A2362
:101C80008B238C238D238E238F23010E286E87BFF9
:101C90004EEF0EF04CEF0EF060EF0EF0871F861F38
:101CA000851F841F831F821F811F806D000E81236B
:101CB000822383238423852386238723010E281AE6
:101CC00020EE29F0070EDE6AE806FDE28851891150
:101CD0008A118B118C118D118E118F11D8B473EF65
:101CE0000EF075EF0EF0C7EF0EF0010E276E83EFCA
:101CF0000EF0D890883789378A378B378C378D37F5
:101D00008E378F37272A8FAF88EF0EF08AEF0EF0CD
:101D100079EF0EF0D89029362A362B362C362D3610
:101D20002E362F3630368851805D895181598A513F
:101D300082598B5183598C5184598D5185598E51BB
:101D400086598F518759D8A0A8EF0EF0AAEF0EF050
:101D5000BBEF0EF08851805F8951815B8A51825BB5
:101D60008B51835B8C51845B8D51855B8E51865B7F
:101D70008F51875B2980D8908F338E338D338C338E
:101D80008B338A3389338833272E8AEF0EF028501D
:101D9000D8B4CDEF0EF0CFEF0EF0DFEF0EF0301E27
:101DA0002F1E2E1E2D1E2C1E2B1E2A1E296C000ED1
:101DB0002A222B222C222D222E222F22302229C011
:101DC00080F02AC081F02BC082F02CC083F02DC09F
:101DD00084F02EC085F02FC086F030C087F012004E
:101DE00027C082F028C083F02B502C10D8A4FBEF22
:101DF0000EF0FDEF0EF0FFEF0EF0ABEF0FF082C034
:101E0000D9FF83C0DAFF29C0DFFF2B5000018225F4
:101E10002D6E2C5083212E6EFF0E2D24D96EFF0EB9
:101E20002E20DA6E29C0DFFF2C5007E1030E2B5C59
:101E3000D8B01DEF0FF01FEF0FF021EF0FF0ABEF59
:101E40000FF020EE01F08251D9268351DA2229C009
:101E5000DFFF20EE02F08251D9268351DA2229C019
:101E6000DFFF2B5082252D6E2C5083212E6EFE0E0F
:101E70002D24D96EFF0E2E20DA6E29C0DFFF2B50E5
:101E800082252D6E2C5083212E6EFD0E2D24D96EB1
:101E9000FF0E2E20DA6E29C0DFFF2C5007E1070E5F
:101EA0002B5CD8B056EF0FF058EF0FF05AEF0FF051
:101EB000ABEF0FF020EE03F08251D9268351DA22E6
:101EC00029C0DFFF2B5082252D6E2C5083212E6ED2
:101ED000FC0E2D24D96EFF0E2E20DA6E29C0DFFFF6
:101EE0002C5007E1090E2B5CD8B079EF0FF07BEF97
:101EF0000FF07DEF0FF0ABEF0FF082C02DF083C03D
:101F00002EF02D1E2E1E2D4A2E2A030E2D14806F0C
:101F1000816B805182278151832380512B5E8151B7
:101F20002C5AFC0E2B16FF0E2C16A2EF0FF082C0BF
:101F3000D9FF83C0DAFF29C0DFFF2B06D8A02C060B
:101F4000824B832B2B502C10D8A4A9EF0FF0ABEFB2
:101F50000FF097EF0FF01200000E286E000187BF00
:101F6000B6EF0FF0B4EF0FF0C8EF0FF0871F861F2A
:101F7000851F841F831F821F811F806D000E812398
:101F8000822383238423852386238723010E286EBF
:101F90008FBFCFEF0FF0CDEF0FF0DFEF0FF08F1F00
:101FA0008E1F8D1F8C1F8B1F8A1F891F886D000E2F
:101FB00089238A238B238C238D238E238F2388517F
:101FC00089118A118B118C118D118E118F11D8B43A
:101FD000ECEF0FF0EEEF0FF036EF10F0010E276E82
:101FE000FCEF0FF0D890883789378A378B378C37DA
:101FF0008D378E378F37272A8FAF01EF10F003EF21
:1020000010F0F2EF0FF08851805D895181598A51AB
:1020100082598B5183598C5184598D5185598E51D8
:1020200086598F518759D8A018EF10F01AEF10F089
:102030002AEF10F08851805F8951815B8A51825B61
:102040008B51835B8C51845B8D51855B8E51865B9C
:102050008F51875BD8908F338E338D338C338B3396
:102060008A3389338833272E03EF10F02850D8B4F1
:102070003CEF10F03EEF10F04EEF10F0871F861F80
:10208000851F841F831F821F811F806D000E812387
:1020900082238323842385238623872380C080F0A3
:1020A00081C081F082C082F083C083F084C084F05C
:1020B00085C085F086C086F087C087F01200000ECC
:1020C0000001936F000E956F8F519011D8A46BEFA4
:1020D00010F06DEF10F06FEF10F00CEF11F0010E3B
:1020E0008F25806F000E9021816F0BEC1CF000019A
:1020F000936F8FC080F090C081F00BEC1CF000015A
:10210000936F000E946F95EF10F094518F25916F9F
:10211000000E9021926F020E9125806F000E922189
:10212000816F0BEC1CF00001942B030E94659BEF68
:1021300010F09DEF10F085EF10F0340E0001916F5C
:10214000F10EE82EFED7912FFCD700D08FC089F07A
:1021500090C08AF0380E00018B6F5DEC19F00D0E07
:102160000001916FFB0EE82EFED7912FFCD700D017
:102170008FC089F090C08AF0380E00018B6F5DEC43
:1021800019F0020E0001926F860E916F990EE82EE3
:10219000FED7912FFCD7922FFAD78FC089F090C02D
:1021A0008AF0380E00018B6F5DEC19F08FC089F05A
:1021B00090C08AF0010E00018B6F5DEC19F08FC0AA
:1021C00089F090C08AF0020E00018B6F5DEC19F06F
:1021D0008FC089F090C08AF0060E00018B6F5DEC15
:1021E00019F08FC089F090C08AF00C0E00018B6F3F
:1021F0005DEC19F08FC089F090C08AF0800E00016C
:102200008B6F5DEC19F08FC089F090C08AF0280EBA
:1022100000018B6F5DEC19F012003B04D8A413EFA2
:1022200011F015EF11F029EF11F0492A3B0E496426
:102230001CEF11F01EEF11F020EF11F0000E496EAF
:10224000430E096E000E0A6E495098EC0CF0BAEF7E
:1022500011F0020E3B18D8A430EF11F032EF11F05C
:1022600046EF11F0482A3B0E486439EF11F03BEF7E
:1022700011F03DEF11F0000E486E420E096E000E97
:102280000A6E485098EC0CF0BAEF11F0030E3B18B0
:10229000D8A44DEF11F04FEF11F063EF11F0472A82
:1022A000170E476456EF11F058EF11F05AEF11F086
:1022B000000E476E410E096E000E0A6E475098ECF4
:1022C0000CF0BAEF11F0040E3B18D8A46AEF11F02D
:1022D0006CEF11F080EF11F0582A1E0E586473EF66
:1022E00011F075EF11F077EF11F0010E586E460EF8
:1022F000096E000E0A6E585098EC0CF0BAEF11F00F
:10230000050E3B18D8A487EF11F089EF11F09DEF6F
:1023100011F0572A0C0E576490EF11F092EF11F064
:1023200094EF11F0010E576E450E096E000E0A6E05
:10233000575098EC0CF0BAEF11F0060E3B18D8A4E9
:10234000A4EF11F0A6EF11F0BAEF11F0562A630EC8
:102350005664ADEF11F0AFEF11F0B1EF11F0010ED7
:10236000566E440E096E000E0A6E565098EC0CF034
:10237000BAEF11F0120027502810D8B4C2EF11F0B4
:10238000C4EF11F0DDEF11F027C0D9FF28C0DAFF4C
:10239000DF30E832E832070B2A6E080E2A60D3EFEE
:1023A00011F0D5EF11F0DDEF11F0010E2964DBEF34
:1023B00011F0DDEF11F042EF12F0000E306E62EF1F
:1023C00012F027C0D9FF28C0DAFFDF30E832E83248
:1023D000070B2A6E010E2B6E2A2AF1EF11F0D8900E
:1023E0002B362A2EEFEF11F02B50FF0A2C6E27C050
:1023F000D9FF28C0DAFFDF50070B2D6E2D50020DDC
:10240000300EF324D96E010EF420DA6EDECF2EF0FA
:10241000DDCF2FF02EC0D9FF2FC0DAFF2C50DF16F2
:1024200057EF12F027C0D9FF28C0DAFFDF30E832BB
:10243000E832070B2A6E010E2B6E2A2A22EF12F0C9
:10244000D8902B362A2E20EF12F027C0D9FF28C0B3
:10245000DAFFDF50070B2C6E2C50020D300EF324E8
:10246000D96E010EF420DA6EDECF2DF0DDCF2EF026
:102470002DC0D9FF2EC0DAFF2B50DF1257EF12F01C
:1024800057EF12F029502A6E2B6A2B50000AD8B44D
:102490004CEF12F040EF12F02A50000AD8B4E1EFEE
:1024A00011F0010AD8B412EF12F040EF12F027C079
:1024B000D9FF28C0DAFF29B002D0DF9E01D0DF8E1D
:1024C000010E306E3050120027502810D8B46BEF38
:1024D00012F06DEF12F086EF12F027C0D9FF28C07E
:1024E000DAFFDF30E832E832070B2A6E080E2A6086
:1024F0007CEF12F07EEF12F086EF12F0010E2964ED
:1025000084EF12F086EF12F0EBEF12F0000E306E57
:102510000BEF13F027C0D9FF28C0DAFFDF30E83215
:10252000E832070B2A6E010E2B6E2A2A9AEF12F060
:10253000D8902B362A2E98EF12F02B50FF0A2C6ED3
:1025400027C0D9FF28C0DAFFDF50070B2D6E2D50B2
:10255000020D3A0EF324D96E010EF420DA6EDECFAE
:102560002EF0DDCF2FF02EC0D9FF2FC0DAFF2C5078
:10257000DF1600EF13F027C0D9FF28C0DAFFDF30E5
:10258000E832E832070B2A6E010E2B6E2A2ACBEFB7
:1025900012F0D8902B362A2EC9EF12F027C0D9FF9F
:1025A00028C0DAFFDF50070B2C6E2C50020D3A0EBC
:1025B000F324D96E010EF420DA6EDECF2DF0DDCFDC
:1025C0002EF02DC0D9FF2EC0DAFF2B50DF1200EF06
:1025D00013F000EF13F029502A6E2B6A2B50000ADB
:1025E000D8B4F5EF12F0E9EF12F02A50000AD8B48F
:1025F0008AEF12F0010AD8B4BBEF12F0E9EF12F043
:1026000027C0D9FF28C0DAFF29B002D0DF9C01D053
:10261000DF8C010E306E3050120027502810D8A4E5
:1026200014EF13F016EF13F082EF13F0000E2B6E81
:10263000A1EF13F020EE03F02750D9262850DA221C
:10264000DE04D8A426EF13F028EF13F02BEF13F0DD
:10265000F18C3AEF13F020EE03F02750D9262850E2
:10266000DA22DF50D8A437EF13F039EF13F03AEF46
:1026700013F0F19C010E2B6EA1EF13F020EE03F08E
:102680002750D9262850DA22DE04D8A44AEF13F0C6
:102690004CEF13F04FEF13F0F18A3AEF13F020EE06
:1026A00003F02750D9262850DA22DF50D8A45BEF58
:1026B00013F05DEF13F03AEF13F0F19A3AEF13F0E5
:1026C00020EE03F02750D9262850DA22DE04D8A4C1
:1026D0006CEF13F06EEF13F071EF13F0F1883AEF37
:1026E00013F020EE03F02750D9262850DA22DF50CD
:1026F000D8A47DEF13F07FEF13F03AEF13F0F198C9
:102700003AEF13F020EE04F02750D9262850DA22B1
:10271000DF50296E2A6A2A50000AD8B492EF13F0CB
:1027200016EF13F02950000AD8B41AEF13F0010A7B
:10273000D8B43EEF13F0030AD8B460EF13F016EFED
:1027400013F02B50120059A2A8EF13F099EF15F0D7
:10275000D7EC22F00009D8B4B0EF13F0B2EF13F0C9
:10276000EEEF13F0C0EF13F021EC23F00AEF14F0BA
:1027700018EC23F00AEF14F006EC23F00AEF14F043
:10278000DDC080F0DEC081F002D8D1EF13F005008B
:10279000FA6E0001D151FD6ED251FE6EFF6AFA5001
:1027A00012000001826F836B8351000AD8B4DBEF03
:1027B00013F0BCEF13F08251010AD8B4BCEF13F050
:1027C000030AD8B4B4EF13F0010AD8B4B8EF13F089
:1027D000070AD8B4BCEF13F0BCEF13F00001EE9180
:1027E000E8C0D9FFE9C0DAFFE84BE92BDF5074EC11
:1027F00023F00001EA07D8A0EB07EA51EB11D8A4B7
:1028000004EF14F006EF14F009EF14F0060E0AEFCF
:1028100014F0030E120029502A10D8B412EF14F04D
:1028200014EF14F01DEF14F029502A10D8A41BEF58
:1028300014F01DEF14F022EF14F02750D3EC23F026
:102840006FEF14F020EE09F02950D9262A50DA2231
:10285000DE50DE10D8B42FEF14F031EF14F04CEF4F
:1028600014F020EE09F02950D9262A50DA2210EE71
:1028700003F02950E1262A50E222DE50E65CE650C1
:10288000800A2F6EDE50800A2F58D8B04AEF14F01D
:102890004CEF14F06FEF14F020EE03F02950D9261E
:1028A0002A50DA22DECF2BF0DDCF2CF029C0D9FF61
:1028B0002AC0DAFFDECF2DF0DDCF2EF02B502D24F5
:1028C000D96E2C502E20DA6E27C0DFFF20EE03F0E9
:1028D0002950D9262A50DA22DE2A000EDD221200E3
:1028E00033A075EF14F077EF14F081EF14F089C086
:1028F00080F08AC081F087C082F088C083F064ECE9
:102900001FF000018CBF87EF14F089EF14F08FEFF8
:1029100014F08BC08FF08CC090F093EF14F0000E89
:10292000906F000E8F6F000E8E6F000E8D6FA6EFF2
:1029300014F0000E286E200E276E87C029F088C084
:102940002AF00BEC14F000018D4B8E2B8F518D5D16
:102950008E51800A306E9051800A3058D8A0B3EF63
:1029600014F0B5EF14F099EF14F033B0BAEF14F09F
:10297000BCEF14F0C6EF14F089C080F08AC081F07B
:1029800087C082F088C083F064EC1FF089C027F014
:102990008AC028F02CEC20F000018F512724876F8B
:1029A00090512820886F12000600FACF1BF0FBCF51
:1029B0001CF0E9CF1DF0EACF1EF0D9CF1FF0DACF1F
:1029C00020F0F3CF21F0F4CF22F0F6CF23F0F7CFB1
:1029D00024F0F8CF25F0F5CF26F0F2A8F2EF14F0AE
:1029E000F4EF14F0FDEF14F0F2A2F9EF14F0FBEFA6
:1029F00014F0FDEF14F013EC21F0F0A602EF15F047
:102A000004EF15F00DEF15F0F0A009EF15F00BEF46
:102A100015F00DEF15F0FCEC20F0F0A812EF15F01A
:102A200014EF15F01DEF15F0F0A219EF15F01BEFE4
:102A300015F01DEF15F0E5EC20F026C0F5FF25C0E0
:102A4000F8FF24C0F7FF23C0F6FF22C0F4FF21C027
:102A5000F3FF20C0DAFF1FC0D9FF1EC0EAFF1DC070
:102A6000E9FF1CC0FBFF1BC0FAFF59921100000ECA
:102A7000066E04BE40EF15F03EEF15F046EF15F080
:102A8000036C041ED8B0042A010E066E02BE4DEF80
:102A900015F04BEF15F053EF15F0016C021ED8B096
:102AA000022A010E061A000E086E000E076E035071
:102AB0000410D8B45EEF15F060EF15F088EF15F054
:102AC000010E056E68EF15F0D89003360436052A1E
:102AD00004AE6DEF15F06FEF15F064EF15F0D890C0
:102AE000073608360350015C04500258D8A07BEF2B
:102AF00015F07DEF15F082EF15F00350015E0450E4
:102B0000025A0780D89004320332052E6FEF15F079
:102B10000650D8B48EEF15F090EF15F094EF15F045
:102B2000076C081ED8B0082A07C001F008C002F0E0
:102B30001200E1EC22F00009D8B4A1EF15F0A3EFE8
:102B400015F0DEEF15F0B1EF15F094EC23F0FAEF8D
:102B500015F090EC23F0FAEF15F088EC23F0FAEF83
:102B600015F0DDC00AF0DEC00BF002D8C2EF15F0A0
:102B70000500FA6E0001D151FD6ED251FE6EFF6A62
:102B8000FA5012000C6E0D6A0D50000AD8B4CBEF4B
:102B900015F0ADEF15F00C50010AD8B4ADEF15F0FB
:102BA000030AD8B4A5EF15F0010AD8B4A9EF15F0BF
:102BB000070AD8B4ADEF15F0ADEF15F00001EE91B6
:102BC000E8C0D9FFE9C0DAFFE84BE92BDF5098EC09
:102BD00023F00001EA07D8A0EB07EA51EB11D8A4D3
:102BE000F4EF15F0F6EF15F0F9EF15F0060EFAEF29
:102BF00015F0030E120059A200EF16F0A9EF17F01E
:102C0000ADEC23F0E8C0D9FFE9C0DAFFDF6E0001C8
:102C1000E84BE92BEA07D8A0EB07EA51EB11D8B44F
:102C200014EF16F016EF16F01BEF16F09FEC23F0E2
:102C3000050E53EF16F0EE8726EF16F0EBEC22F0C0
:102C400053EF16F0F4EC22F053EF16F0D7C080F0FB
:102C5000D8C081F002D836EF16F00500FA6ECB51DD
:102C6000FD6ECC51FE6EFF6AFA5012000001826FB9
:102C7000836B8351000AD8B440EF16F022EF16F0B0
:102C80008251010AD8B422EF16F0030AD8B41EEF1D
:102C900016F0010AD8B41EEF16F0070AD8B422EFD6
:102CA00016F022EF16F01200000E066E02BE5DEF67
:102CB00016F05BEF16F063EF16F0016C021ED8B051
:102CC000022A010E066E04BE6AEF16F068EF16F0D7
:102CD0006EEF16F0036C041ED8B0042A03500410E3
:102CE000D8B475EF16F077EF16F09BEF16F0010EE3
:102CF000056E7FEF16F0D89003360436052A04AE31
:102D000084EF16F086EF16F07BEF16F00350015CAF
:102D100004500258D8A08FEF16F091EF16F095EFFF
:102D200016F00350015E0450025AD8900432033268
:102D3000052E86EF16F00650D8B4A1EF16F0A3EFDB
:102D400016F0A7EF16F0016C021ED8B0022A01C0DF
:102D500001F002C002F01200000E0001936F000E9D
:102D6000946F8F519011D8B4B8EF16F0BAEF16F0F7
:102D7000C3EF16F091519211D8A4C1EF16F0C3EF32
:102D800016F0E3EF16F0000E956FFFEF16F08FC010
:102D900089F090C08AF091C0F6FF92C0F7FF000E54
:102DA000F86E0F0EF76403D00800F55005D0F6CF8B
:102DB000E9FFF7CFEAFFEF5000018B6F19EC19F034
:102DC0000001914B922B91C0F6FF92C0F7FF000ECD
:102DD000F86E0F0EF76403D00800F55005D0F6CF5B
:102DE000E9FFF7CFEAFFEF500009D8A4FAEF16F099
:102DF000FCEF16F0C7EF16F0010E0001956F95512C
:102E000012002A502B10D8A408EF17F00AEF17F081
:102E100035EF17F0000E2E6E54EF17F02AC0D9FFD1
:102E20002BC0DAFFDECF27F0DDCF28F0D8EC21F081
:102E30002E6E54EF17F02AC0D9FF2BC0DAFFDECF79
:102E400027F0DDCF28F0C3EC21F02E6E54EF17F001
:102E50002AC0D9FF2BC0DAFFDECF27F0DDCF28F064
:102E6000AEEC21F02E6E54EF17F020EE04F02A5055
:102E7000D9262B50DA22DF502C6E2D6A2D50000AF5
:102E8000D8B445EF17F00AEF17F02C50000AD8B469
:102E90000EEF17F0010AD8B41BEF17F0030AD8B4ED
:102EA00028EF17F00AEF17F02E501200000E000165
:102EB000956F000E966F92078AEF17F08FC089F01A
:102EC00090C08AF09251800F8B6F5DEC19F0A7EFE4
:102ED00017F08FC089F090C08AF09251C00F8B6FAD
:102EE0005DEC19F0A7EF17F08FC089F090C08AF061
:102EF0009251940F8B6F5DEC19F0A7EF17F08FC014
:102F000089F090C08AF09251D40F8B6F5DEC19F06C
:102F1000A7EF17F09151936F946B9451000AD8B4B6
:102F200094EF17F0A7EF17F09351010AD8B45EEFB2
:102F300017F0030AD8B469EF17F0010AD8B474EF98
:102F400017F0070AD8B47FEF17F0A7EF17F0000EBD
:102F50001200BFEC23F0E8C0D9FFE9C0DAFFDF6E52
:102F60000001E84BE92BEA07D8A0EB07EA51EB1187
:102F7000D8B4BDEF17F0BFEF17F0C4EF17F0A5EC12
:102F800023F0050EFBEF17F0EE87CFEF17F07CEC88
:102F900023F0FBEF17F080EC23F0FBEF17F0D7C026
:102FA0000AF0D8C00BF002D8DFEF17F00500FA6E78
:102FB000CB51FD6ECC51FE6EFF6AFA5012000C6EC2
:102FC0000D6A0D50000AD8B4E8EF17F0CBEF17F0F8
:102FD0000C50010AD8B4CBEF17F0030AD8B4C7EFEE
:102FE00017F0010AD8B4C7EF17F0070AD8B4CBEF2F
:102FF00017F0CBEF17F012003B50D8A402EF18F0F7
:1030000004EF18F00DEF18F0CAEC1DF020EE41F0BF
:10301000050EEBCFDBFFE806FCE23B2A070E3B1870
:10302000D8A415EF18F017EF18F043EF18F0000EC2
:103030003B6E000E126E43C013F0D00E5FEC1DF01D
:10304000010E126E42C013F0D00E5FEC1DF0020EA6
:10305000126E41C013F0D00E5FEC1DF0040E126E24
:1030600046C013F0D00E5FEC1DF0050E126E45C089
:1030700013F0D00E5FEC1DF0060E126E44C013F07C
:10308000D00E5FEC1DF01200DA0EF66E430EF76EF6
:10309000000EF86E01EE26F010EE24F00900F5CFD8
:1030A000EEFFE550E150FAE1380EF66E470EF76E8E
:1030B000000EF86E00EEFAF010EE06F00900F5CF03
:1030C000EEFFE550E150FAE1840EF66E460EF76E23
:1030D000000EF86E00EE4BF010EE0EF00900F5CF8A
:1030E000EEFFE550E150FAE101EE00F0260EEE6A47
:1030F000E806FDE100EECBF02F0EEE6AE806FDE1FA
:1031000000EE31F01A0EEE6AE806FDE15990599290
:1031100000012EEF08F0276E010E286E0001EEB5BB
:1031200094EF18F096EF18F0D0EF18F027C0E7F002
:10313000EE93EE85EE910E0EEC6F010EE66FF40E3F
:10314000E56FEE87A00ECB6F460ECC6F000ED76FEB
:10315000000ED86FA00ECD6F460ECE6F000ED96F49
:10316000000EDA6FA00ECF6F460ED06F000EDB6F31
:10317000000EDC6FA00ED16F460ED26F000EDD6F19
:10318000000EDE6F920ED36F460ED46F000EDF6F0F
:10319000000EE06FBBEC23F023EC22F0000E286E53
:1031A00028501200016E010E026E0001EEB5DBEF39
:1031B00018F0DDEF18F017EF19F001C0E7F0EE930B
:1031C000EE85EE910E0EEC6F010EE66FF40EE56FDC
:1031D000EE878A0ECB6F470ECC6F000ED76F000EB6
:1031E000D86F8A0ECD6F470ECE6F000ED96F000ECE
:1031F000DA6F8A0ECF6F470ED06F000EDB6F000EB6
:10320000DC6F8A0ED16F470ED26F000EDD6F000E9D
:10321000DE6F860ED36F470ED46F000EDF6F000E89
:10322000E06FD1EC23F034EC22F0000E026E02507D
:103230001200000E00018C6F000E8D6F89518A11F3
:10324000D8A425EF19F027EF19F02BEF19F0000E95
:103250008E6F5BEF19F089C027F08AC028F0010E4D
:10326000296EBBEC11F089C080F08AC081F00001AA
:103270008B390F0B826F63EC1EF000018D6F89C0DC
:1032800080F08AC081F00EEC20F000018D6F89C0C3
:1032900080F08AC081F08BC082F063EC1EF00001E8
:1032A0008D6F89C080F08AC081F00EEC20F00001A3
:1032B0008D6F010E8E6F8E511200000E00018C6F0B
:1032C000000E8D6F89518A11D8A469EF19F06BEF48
:1032D00019F06FEF19F0000E8E6F9FEF19F089C093
:1032E00027F08AC028F0000E296EBBEC11F089C0CF
:1032F00080F08AC081F000018B390F0B826F63EC84
:103300001EF000018D6F89C080F08AC081F00EEC44
:1033100020F000018D6F89C080F08AC081F08BC0E1
:1033200082F063EC1EF000018D6F89C080F08AC0CE
:1033300081F00EEC20F000018D6F010E8E6F8E512A
:10334000120059A2A6EF19F0A0EF1AF00001EE87C3
:10335000B7EF19F00FEC23F0E4EF19F0ABEC23F02A
:10336000030EE4EF19F006EC23F0E4EF19F0D7C0F8
:1033700080F0D8C081F002D8C7EF19F00500FA6ECE
:10338000CB51FD6ECC51FE6EFF6AFA501200000167
:10339000826F836B8351000AD8B4D1EF19F0B3EF79
:1033A00019F08251010AD8B4B3EF19F0030AD8B466
:1033B000AAEF19F0010AD8B4AAEF19F0070AD8B495
:1033C000AEEF19F0B3EF19F0120027502810D8A46F
:1033D000ECEF19F0EEEF19F003EF1AF0000E2B6E80
:1033E00022EF1AF0F28EF28CF288010E2B6E22EF91
:1033F0001AF0F28EF28CF086F5EF19F0F28EF28C64
:10340000F088F5EF19F020EE04F02750D926285067
:10341000DA22DF50296E2A6A2A50000AD8B413EF44
:103420001AF0EEEF19F02950000AD8B4F2EF19F0B3
:10343000010AD8B4F9EF19F0030AD8B4FEEF19F075
:10344000EEEF19F02B501200000E00019D6F000EE0
:103450009E6F97519811D8B430EF1AF032EF1AF0EE
:103460004BEF1AF09B519C11D8B439EF1AF03BEF97
:103470001AF04BEF1AF0050E996141EF1AF043EF85
:103480001AF04BEF1AF0280E9A6549EF1AF04BEF3D
:103490001AF04DEF1AF061EF1AF097C08FF098C054
:1034A00090F099C091F09AC092F056EC17F097C046
:1034B0008FF098C090F09BC091F09CC092F0ACEC63
:1034C00016F012000001886F000E0001896F0001E4
:1034D00088518BEC18F00009D8B471EF1AF073EF33
:1034E0001AF067EF1AF0FA0E2C6E400E2D6E890E50
:1034F0002E6E000E2F6E88EC22F0300E276E000E1E
:10350000286E000E2A6E010E296EFFEC21F0000ECF
:103510002C6E000E2D6E000E2E6E000E2F6E70ECB7
:1035200022F070EC23F02AEC21F0E806D8B49BEFEF
:103530001AF09DEF1AF093EF1AF000018951120072
:103540000001EE87B1EF1AF08CEC23F0DDEF1AF0FA
:10355000BDEC23F0030EDDEF1AF088EC23F0DDEF75
:103560001AF0D7C00AF0D8C00BF002D8C1EF1AF099
:103570000500FA6ECB51FD6ECC51FE6EFF6AFA501B
:1035800012000C6E0D6A0D50000AD8B4CAEF1AF082
:10359000ADEF1AF00C50010AD8B4ADEF1AF0030ADF
:1035A000D8B4A4EF1AF0010AD8B4A4EF1AF0070AAD
:1035B000D8B4A8EF1AF0ADEF1AF01200000188514C
:1035C0008911D8A4E6EF1AF0E8EF1AF0EAEF1AF042
:1035D0001AEF1BF088C027F089C028F044EC1CF0DB
:1035E00000018A6F88C027F089C028F07DEC1CF0AC
:1035F00000018A1388C027F089C028F00DEC13F071
:1036000000018A1388C085F089C086F0B3EC20F0F1
:1036100000018A1388C02AF089C02BF001EC17F052
:1036200000018A1388C027F089C028F0E5EC19F062
:1036300000018A1312002B6E27502810D8B423EFF4
:103640001BF025EF1BF03FEF1BF02B50020DCB0EB4
:10365000F324D96E000EF420DA6E27C0DEFF28C0F6
:10366000DDFF2B50020DD70EF324D96E000EF4208F
:10367000DA6E29C0DEFF2AC0DDFF57EF1BF02B50AA
:10368000020DCB0EF324D96E000EF420DA6EA00EDC
:10369000DE6E460EDD6E2B50020DD70EF324D96E72
:1036A000000EF420DA6E000EDE6E000EDD6E1200EB
:1036B000056E01500210D8B460EF1BF062EF1BF0F2
:1036C0007CEF1BF00550020DCB0EF324D96E000EDB
:1036D000F420DA6E01C0DEFF02C0DDFF0550020DEE
:1036E000D70EF324D96E000EF420DA6E03C0DEFF8D
:1036F00004C0DDFF94EF1BF00550020DCB0EF32448
:10370000D96E000EF420DA6E8A0EDE6E470EDD6E84
:103710000550020DD70EF324D96E000EF420DA6E98
:10372000000EDE6E000EDD6E1200000E00019C6FBA
:10373000000E9D6F97519811D8B4A1EF1BF0A3EF25
:103740001BF0B3EF1BF0050E9961A9EF1BF0ABEF77
:103750001BF0B3EF1BF0140E9A65B1EF1BF0B3EF43
:103760001BF0B7EF1BF0000E9E6FCFEF1BF097C062
:103770008FF098C090F099C091F09AC092F056ECFA
:1037800017F000019D6F97C089F098C08AF09BC028
:103790008BF019EC19F000019D6F010E9E6F9E5188
:1037A0001200136E000E146E1350D2EC18F00009C4
:1037B000D8B4DDEF1BF0DFEF1BF0D4EF1BF0D80E19
:1037C000066E420E076E140E086E000E096EA0EC17
:1037D00022F0120E016E000E026E000E046E010E3B
:1037E000036E11EC22F0000E066E000E076E000E46
:1037F000086E000E096E94EC22F078EC23F098EC41
:1038000021F0E806D8B407EF1CF009EF1CF0FFEF39
:103810001BF014501200000E0001836F80518111C3
:10382000D8B415EF1CF017EF1CF028EF1CF080C087
:10383000D9FF81C0DAFFDF30E832E832070B826F50
:10384000070E826526EF1CF028EF1CF02CEF1CF011
:10385000000E846F42EF1CF080C027F081C028F07A
:10386000000E296E64EC12F00001836F80C027F017
:1038700081C028F0000E296EBBEC11F00001836FAF
:10388000010E846F8451120027502810D8A44BEFEA
:103890001CF04DEF1CF05CEF1CF0000E2B6E7BEF6C
:1038A0001CF0F298010E2B6E7BEF1CF0F09652EF9D
:1038B0001CF0F09852EF1CF020EE04F02750D926AF
:1038C0002850DA22DF50296E2A6A2A50000AD8B41A
:1038D0006CEF1CF04DEF1CF02950000AD8B451EFEA
:1038E0001CF0010AD8B456EF1CF0030AD8B459EF03
:1038F0001CF04DEF1CF02B50120027502810D8A4BC
:1039000084EF1CF086EF1CF095EF1CF0000E2B6E80
:10391000B4EF1CF0F292010E2B6EB4EF1CF0F29299
:103920008BEF1CF0F2928BEF1CF020EE04F027508E
:10393000D9262850DA22DF50296E2A6A2A50000A36
:10394000D8B4A5EF1CF086EF1CF02950000AD8B4BB
:103950008AEF1CF0010AD8B48FEF1CF0030AD8B428
:1039600092EF1CF086EF1CF02B50120059A2BBEF17
:103970001CF0FEEF1DF00001EE91020EED6FC9EF9D
:103980001CF00FEC23F0EEEF1CF006EC23F0EEEF52
:103990001CF0DBC080F0DCC081F002D8D9EF1CF055
:1039A0000500FA6ECF51FD6ED051FE6EFF6AFA50DF
:1039B00012000001826F836B8351000AD8B4E3EFD9
:1039C0001CF0C5EF1CF08251020AD8B4C1EF1CF004
:1039D000010AD8B4C1EF1CF0C5EF1CF01200BBEC1B
:1039E00023F00001EEA1F7EF1CF0F9EF1CF006EF59
:1039F0001DF0D7EC22F00009D8B401EF1DF003EF61
:103A00001DF006EF1DF00F0E0001EC6F0001EC51F0
:103A1000020D010EF324F66E100EF420F76EF86A14
:103A2000000EF8220900F5CF84F00900F5CF85F0EB
:103A300002D824EF1DF00500FA6E8451FD6E855109
:103A4000FE6EFF6AFA5012000001EC6F1200D1EC1A
:103A500023F00001EEA12FEF1DF031EF1DF03EEF3E
:103A60001DF0E1EC22F00009D8B439EF1DF03BEF76
:103A70001DF03EEF1DF00F0E0001EC6F0001EC5148
:103A8000020D010EF324F66E100EF420F76EF86AA4
:103A9000000EF8220900F5CF0EF00900F5CF0FF067
:103AA00002D85CEF1DF00500FA6E0E50FD6E0F504F
:103AB000FE6EFF6AFA5012000001EC6F1200146EE5
:103AC0001450D2EC18F00009D8B469EF1DF06BEF78
:103AD0001DF060EF1DF0800E066E420E076E130E95
:103AE000086E000E096EA0EC22F0120E016E000EA0
:103AF000026E000E046E010E036E11EC22F0000E39
:103B0000066E000E076E000E086E000E096E94EC35
:103B100022F078EC23F098EC21F0E806D8B493EF8B
:103B20001DF095EF1DF08BEF1DF01200000E306EB2
:103B3000D00E62EC1AF00001F16F010E306ED00E63
:103B400062EC1AF00001F06F020E306ED00E62ECE3
:103B50001AF00001EF6F040E306ED00E62EC1AF016
:103B60000001F46F050E306ED00E62EC1AF0000109
:103B7000F36F060E306ED00E62EC1AF00001F26F99
:103B800020EEEFF000EE8AF0050EDBCFEBFFE8064B
:103B9000FCE21200000E126ED00ED1EC1BF0000100
:103BA000F16F010E126ED00ED1EC1BF00001F06F20
:103BB000020E126ED00ED1EC1BF00001EF6F040E5E
:103BC000126ED00ED1EC1BF00001F46F050E126ED8
:103BD000D00ED1EC1BF00001F36F060E126ED00E6A
:103BE000D1EC1BF00001F26F20EEEFF000EE15F0CB
:103BF000050EDBCFEBFFE806FCE212000001EE91C0
:103C0000020EED6F0CEF1EF08CEC23F030EF1EF087
:103C100088EC23F030EF1EF0DBC00AF0DCC00BF0C4
:103C200002D81CEF1EF00500FA6ECF51FD6ED05188
:103C3000FE6EFF6AFA5012000C6E0D6A0D50000AFB
:103C4000D8B425EF1EF008EF1EF00C50020AD8B4CD
:103C500004EF1EF0010AD8B404EF1EF008EF1EF0C6
:103C60001200C7C04AF1C8C04BF1000E0001F66F48
:103C7000000EF56F4FEF1EF0C5C0B5F0C6C0B6F030
:103C80004A0EB76F010EB86FC9C0B9F0CAC0BAF01A
:103C9000B8EC0BF00001B551F527B651F6234AC137
:103CA000F6FF4BC1F7FFF86A0800F5500009D8A4E9
:103CB0005CEF1EF05EEF1EF03CEF1EF0F5C0C5F0AD
:103CC000F6C0C6F01200000E0001876F000E886F6C
:103CD0008AEF1EF088518025836F000E8121846F4A
:103CE000020E8325276E000E8421286E88C085F081
:103CF00082C086F0852B7FEF1EF0D8908633852F0B
:103D00007DEF1EF000018651010B296EBBEC11F016
:103D10000001882B030E886590EF1EF092EF1EF0D5
:103D20006AEF1EF087511200000E0001836F805170
:103D30008111D8B49EEF1EF0A0EF1EF0B1EF1EF07F
:103D400080C0D9FF81C0DAFFDF30E832E832070BEC
:103D5000826F070E8265AFEF1EF0B1EF1EF0B5EF78
:103D60001EF0000E846FC0EF1EF080C027F081C0EF
:103D700028F0010E296E64EC12F0010E0001846F30
:103D8000845112000101616F01015F516011D8A4DB
:103D9000CCEF1EF0CEEF1EF0D0EF1EF0ECEF1EF0D9
:103DA0005FC127F060C128F0000E2A6E000E296E58
:103DB000000E2C6E040E2B6EF0EC0EF05FC14CF179
:103DC00060C14DF1580E01014E6F100E4F6F61C171
:103DD00050F1516BEDEC1EF01200500E0101526FCC
:103DE000010E536F4CC154F14DC155F1000E586F87
:103DF000000E576F000E5E6F000E5D6F540E0001D7
:103E0000C56F010EC66F4EC1C7F04FC1C8F0520E4C
:103E1000C96F010ECA6F31EC1EF0010157514C25DC
:103E2000D96E58514D21DA6E000EDF6E1200000E71
:103E30000101676F000E686F62516311D8A423EF10
:103E40001FF025EF1FF027EF1FF03DEF1FF0F90ED9
:103E50005F6F000E606F6651C2EC1EF062C197F09A
:103E600063C198F064C199F065C19AF0F90E000140
:103E70009B6F000E9C6F24EC1AF0120059A243EFC6
:103E80001FF0EEEF1FF0000120EE02F08051D92666
:103E90008151DA22DECF27F0DDCF28F080C0D9FFB4
:103EA00081C0DAFFDECF29F0DDCF2AF0FFEC21F070
:103EB000000E2C6E000E2D6E000E2E6E000E2F6E5C
:103EC00088EC22F0020E1200000E0001866F000E38
:103ED000856F77EF1FF084C027F0286A82C029F031
:103EE00083C02AF00BEC14F00001854B862B855122
:103EF0008025D96E86518121DA6EDF50846F84511E
:103F0000D8A485EF1FF087EF1FF06BEF1FF01200B2
:103F10000001866F010E0001876FEEB392EF1FF074
:103F200094EF1FF0A9EF1FF0EE83000E876F86510C
:103F3000D8B49DEF1FF09FEF1FF0A3EF1FF0010E0D
:103F4000EC6FA5EF1FF0020EEC6FB5EC23F045EC23
:103F500022F0000187511200106E010E116E000157
:103F6000EEB3B5EF1FF0B7EF1FF0CCEF1FF0EE830D
:103F7000000E116E1050D8B4C0EF1FF0C2EF1FF04A
:103F8000C6EF1FF0010EEC6FC8EF1FF0020EEC6FD2
:103F9000CBEC23F054EC22F0115012002ABEDBEFE0
:103FA0001FF02A5006E12904D8B0D9EF1FF0DBEF4B
:103FB0001FF0E9EF1FF029C02BF02AC02CF02B1EB8
:103FC0002C1E2B4A2C2A2BC029F02CC02AF0EDEFF6
:103FD0001FF029C029F02AC02AF0120020EE02F0BA
:103FE0000A50D9260B50DA22DECF01F0DDCF02F0E5
:103FF0000AC0D9FF0BC0DAFFDECF03F0DDCF04F03B
:1040000011EC22F0000E066E000E076E000E086E18
:10401000000E096EA0EC22F0020E1200000E00014C
:10402000826F010E8025276E000E8121286E010E01
:10403000296EBBEC11F0030EE82EFED700F0010E46
:1040400000018025276E000E8121286E000E296E4A
:10405000BBEC11F0000E120027C029F028C02AF096
:1040600034EF20F0274A282A27C0D9FF28C0DAFFDA
:10407000DF50D8A43EEF20F040EF20F032EF20F0E8
:104080002950275C276E2A502858286E120059A202
:104090004CEF20F040EF21F080C027F081C028F0E5
:1040A000000E2A6E010E296EFFEC21F0000E2C6E20
:1040B000000E2D6E000E2E6E000E2F6E88EC22F07C
:1040C000040E120059A267EF20F056EF21F080C0D5
:1040D00027F081C028F0000E2A6E020E296EFFEC38
:1040E00021F0000E2C6E000E2D6E000E2E6E000EB6
:1040F0002F6E88EC22F0020E120059A282EF20F0FF
:104100006CEF21F080C027F081C028F0000E2A6EED
:10411000010E296EFFEC21F0000E2C6E000E2D6EAC
:10412000000E2E6E000E2F6E88EC22F0020E120092
:1041300059A29DEF20F082EF21F080C027F081C0CE
:1041400028F0000E2A6E020E296EFFEC21F0000E00
:104150002C6E000E2D6E000E2E6E000E2F6E88EC53
:1041600022F0040E1200000185518611D8A4BBEF85
:1041700020F0BDEF20F0C1EF20F0000E876FCBEFF5
:1041800020F0020E8525806F000E8621816F94EC51
:104190001EF00001876F87511200CDEC22F0500E07
:1041A00000018F6F000E906F5FEC10F0FA0E0001AF
:1041B000886F000E896FDEEC1AF0440E0001886FE4
:1041C000010E896FDEEC1AF01200F09235503610B5
:1041D000D8B4EDEF20F0EFEF20F0FBEF20F002D8A5
:1041E000FBEF20F00500FA6E3550FD6E3650FE6E86
:1041F000FF6AFA5012001200F09037503810D8B40D
:1042000004EF21F006EF21F012EF21F002D812EFB7
:1042100021F00500FA6E3750FD6E3850FE6EFF6AD1
:10422000FA5012001200F29239503A10D8B41BEF33
:1042300021F01DEF21F029EF21F002D829EF21F024
:104240000500FA6E3950FD6E3A50FE6EFF6AFA5064
:1042500012001200010E276E0001EEB332EF21F0C2
:1042600034EF21F03EEF21F0EE95E769BBEC23F04F
:10427000B7EC23F0B9EC23F0EDC027F02750120083
:104280000AC001F00BC002F0000E046E010E036EB6
:1042900011EC22F0000E066E000E076E000E086E86
:1042A000000E096EA0EC22F0040E12000AC001F00C
:1042B0000BC002F0000E046E020E036E11EC22F031
:1042C000000E066E000E076E000E086E000E096EE0
:1042D000A0EC22F0020E12000AC001F00BC002F0A6
:1042E000000E046E010E036E11EC22F0000E066E3D
:1042F000000E076E000E086E000E096EA0EC22F094
:10430000020E12000AC001F00BC002F0000E046E93
:10431000020E036E11EC22F0000E066E000E076E08
:10432000000E086E000E096EA0EC22F0040E1200C2
:10433000010E016E0001EEB3A0EF21F0A2EF21F01B
:10434000ACEF21F0EE95E769D1EC23F0CDEC23F052
:10435000CFEC23F0EDC001F00150120027502810DF
:10436000D8A4B5EF21F0B7EF21F0BBEF21F0000E9C
:10437000296EC1EF21F027C035F028C036F0010EBC
:10438000296E2950120027502810D8A4CAEF21F016
:10439000CCEF21F0D0EF21F0000E296ED6EF21F006
:1043A00027C037F028C038F0010E296E29501200BE
:1043B00027502810D8A4DFEF21F0E1EF21F0E5EF3E
:1043C00021F0000E296EEBEF21F027C039F028C054
:1043D0003AF0010E296E29501200800F810F820FD2
:1043E000830F840F890F8A0F8B0F8C0F8D0F920F05
:1043F000930F940F950F960F1A22090101000001E7
:10440000EEA705EF22F007EF22F010EF22F027C011
:10441000E8F028C0E9F029C0EAF02AC0EBF0EE97F6
:1044200012000001EEA717EF22F019EF22F022EFA1
:1044300022F001C0E8F002C0E9F003C0EAF004C0D5
:10444000EBF0EE971200C6BA28EF22F02AEF22F026
:1044500033EF22F0000EC76E080EC66E000EC56E5A
:10446000130EC86EC68A1200C6BA39EF22F03BEFAF
:1044700022F044EF22F0000EC76E080EC66E000E4A
:10448000C56E130EC86EC68A12004BEF22F02AECDE
:1044900023F0EFEC1CF00001EEB351EF22F053EFEC
:1044A00022F047EF22F012005AEF22F032EC23F014
:1044B00027EC1DF00001EEB360EF22F062EF22F076
:1044C00056EF22F0120059A268EF22F03AEF23F0E3
:1044D0000001EE81E751010974EC23F0050E120092
:1044E0002CC027F02DC028F02EC029F02FC02AF0B4
:1044F000020E1BEC1BF0120059A281EF22F057EFC5
:1045000023F00001EE81E75174EC23F0030E12005A
:104510002CC027F02DC028F02EC029F02FC02AF083
:10452000000E1BEC1BF0120006C001F007C002F0E9
:1045300008C003F009C004F0020E58EC1BF0120092
:1045400006C001F007C002F008C003F009C004F083
:10455000000E58EC1BF0120059A2B1EF22F05EEFF2
:1045600023F00001EE93000EED6F0E0E120059A223
:10457000BCEF22F064EF23F00001EE91AFEC23F0EA
:10458000040E120059A2C7EF22F06AEF23F00001D7
:10459000EE93000EED6F0E0E1200000EC76E080EA9
:1045A000C66E000EC56E130EC86EC69A1200C5BC4C
:1045B000DCEF22F0DFEF22F0010EE0EF22F0000E40
:1045C0001200C5BCE6EF22F0E9EF22F0010EEAEF9F
:1045D00022F0000E120059A2F0EF22F07CEF23F03F
:1045E000A2EC23F0090E120059A2F9EF22F080EF9D
:1045F00023F0A2EC23F00A0E120059A202EF23F0DE
:1046000084EF23F09FEC23F0050E120059A20BEF6C
:1046100023F088EF23F0B1EC23F0000E120059A232
:1046200014EF23F08CEF23F0B3EC23F0010E120013
:1046300059A21DEF23F090EF23F0B3EC23F0020E0C
:10464000120059A226EF23F094EF23F0B3EC23F0ED
:10465000010E12009EA62FEF23F031EF23F02AEF78
:1046600023F012009EA637EF23F039EF23F032EF4C
:1046700023F012000001EE81E751010998EC23F0CC
:10468000050E12000101010104232B030B131B0172
:10469000010159A24EEF23F0C3EF23F0050E1200E3
:1046A00059A255EF23F0C5EF23F0010E12000001CF
:1046B000EE81E75198EC23F0030E12000001EE9317
:1046C000000EED6F0E0E12000001EE91C1EC23F012
:1046D000040E12000001EE93000EED6F0E0E12009C
:1046E000000E88EC1FF01200276E27C0C9FF1200D1
:1046F000000EACEC1FF01200A8EC23F0090E120023
:10470000A8EC23F00A0E1200A5EC23F0050E12000F
:10471000C7EC23F0000E1200C9EC23F0010E1200CA
:10472000C9EC23F0020E1200C9EC23F0010E1200B6
:10473000016E01C0C9FF1200F82F01010000C59AE7
:10474000C5881200C58AC5881200C59AC58812009E
:10475000C58AC58812009E861200C9501200C586FF
:104760001200C5841200C5821200C58012009D96F9
:104770001200C69A12009E9612009E861200C95020
:104780001200C5861200050E1200010E1200C5842B
:104790001200C5821200C58012009D961200C69AB2
:0847A00012009E9612001200A7
:020000040030CA
:0E000000FF02091EFF8181FF0FC00FE00F40BD
:00000001FF
